:060000000A128A110C280F
:10000800FE00030EF0000A08F1000A128A116728A0
:100018000A128A110F28F601F401F50183010A1268
:100028008A1154287508F3007408F200F40A0319B9
:10003800F50A03307302E83003197202031C2528FD
:1000480026282B28F401F501831203130915C8305B
:1000580074067504031D31283228352883120313CA
:10006800091108007030831603138F040F1D3D28F3
:100078003E283A288316031788018901831603133B
:1000880009118113811281110108F839033881009F
:1000980083308312031381000B118B168B17080012
:1000A8000A128A1136200A128A11761C5C285D28E9
:1000B800592876100A128A1116200A128A1159280C
:1000C8000A128A110C280B1D6A286B2871280B113B
:1000D8008330831203138107761471088A00700E27
:0800E8008300FE0E7E0E0900EC
:02400E00F42C90
:00000001FF
