:060000000A128A110C280F
:10000800FE00030EF4000A08F5000A128A1195286A
:100018000A128A110F28F801F001F101F201F30127
:1000280083010A128A117D287030831603138F0406
:100038000F1D1F2820281C288316031788018901F3
:1000480083160313081009118312031308100911EA
:10005800831603138113811281110108F8390338BB
:10006800810083308312031381000B118B168B17C9
:1000780008007108F7007008F600F00A0319F10A81
:1000880000307702C83003197602031C4C284D282B
:100098005228F001F101831203130814643070062A
:1000A8007104031D582859285C288312031308106B
:1000B80008007308F7007208F600F20A0319F30A39
:1000C80003307702E83003197602031C6C286D2888
:1000D8007228F201F301831203130915C83072065E
:1000E8007304031D782879287C28831203130911C7
:1000F80008000A128A1118200A128A11781C852809
:100108008628822878100A128A115D200A128A111C
:100118000A128A113D200A128A1182280A128A11AB
:100128000C280B1D982899289F280B1183308312BF
:1001380003138107781475088A00740E8300FE0E75
:040148007E0E09001E
:02400E00F42C90
:00000001FF
