:060000000A128A110C280F
:10000800FE00030EF8000A08F9000A128A112F29C7
:100018000A128A110F28FB01F001F101F201F30124
:10002800F401F501F601F70183120313A001A10100
:1000380083010A128A11CF280130F0070318F10A48
:100048000030F10766282130831203138800273017
:100058007102103003197002031C332834287428E5
:10006800F001F1010130F6077428223083120313DE
:1000780088000B307102B83003197002031C452840
:100088004628742834280C3083120313880027303C
:100098007102103003197002031C53285428742865
:1000A800342814308312031388000B307102B830DF
:1000B80003197002031C612862287428F001F101F9
:1000C800F60174287608003A03192728013A03191B
:1000D8003928033A03194728013A0319552874287F
:1000E8000800013083120313A0070318A10A003087
:1000F800A1079C28880101302102F430031920024D
:10010800031C87288828A428A001A1010130F5072D
:10011800A4281230880001302102F430031920028B
:10012800031C97289828A428A001A101F501A42858
:100138007508003A03197E28013A03198D28A42866
:1001480008007030831603138F040F1DAC28AD28E8
:10015800A928831603178801890183160313091137
:1001680083120313091183160313880112308312B3
:100178000313880083160313811381128111010868
:10018800F8390338810083308312031381000B117F
:100198008B168B1708000A128A11A5200A128A11D9
:1001A8007B1CD728D828D4287B100A128A11F7205C
:1001B8000A128A110A128A1115210A128A1177085D
:1001C8000319E728E828EE280A128A1120200A12C3
:1001D8008A11D4280A128A1175200A128A11D42881
:1001E8000A128A110C28730883120313A3007208D9
:1001F800A200F20A0319F30A03302302E8300319B4
:100208002202031C082909290C29F201F301091506
:10021800C83072067304031D122913291429091101
:1002280008008312031306080139770603191D29EC
:100238001E292D290130F407FF307407FA00C83051
:100248007A02031C282929292E2906080139F700D2
:100258002E29F40108000B1D3229332939290B11E5
:1002680083308312031381077B1479088A00780E80
:080278008300FE0E7E0E09005A
:02400E00F42C90
:00000001FF
