:020000040000FA
:060000008A150A16A02F6C
:083F3800000000000000000081
:103F400083018316243098008130990083129030C9
:103F50009800EB27C13C031DFC2F363099008301EC
:103F60004B309900F801EB2703178F00FE008316F2
:103F7000FE00EB2703178D00EB27F900FA00FA0A81
:103F80001F308400EB27840A8000FA0BC22FF80848
:103F9000031DE82F031720308400640000088C0004
:103FA000840A00088E00840A83168C170C1555307D
:103FB0008D00AA308D008C14000000008C18DE2FBC
:103FC0000C1183128D0A7E1FF903F90BCD2FAF2F31
:103FD0004E309900B22F83010B30FB00FC01FD0134
:103FE0008C1EF52F1A08F80708006400FD0BF02F4F
:0C3FF000FC0BEF2FFB0BEE2F98139C2F07
:043FFC000034003459
:02400E00E220AE
:00000001FF
